:020000040000FA
:04000000F8EF01F024
:080008001AEF02F0195200008A
:1000100001E11200310E0000FF0FD8A4FCD7000050
:100020000000192EF7D71200395205E0B190A092C6
:10003000BA9EC2901200BB6A900EBA6EBAACFED7DE
:10004000C280B368B268A192A082B1801200385217
:100050000AE0CF6ACE6A9E909D80310ECD6E800EF2
:10006000D36E03001200CD6A9D90300ED36E120045
:10007000346A376A356A080E3514366E36661200F1
:10008000D8903736313634363450326401D003D00C
:100090003250345E3780352AEED7F29A00EE05F002
:1000A000E9502B50E926EF50116E050EE96E2C50E9
:1000B000E926EF50126EF28A1200F70ED8902B5CF0
:1000C0002BAE01D005E3630E2BBE0FD02B640DD0F9
:1000D0002D50EA6E2C50E96E0A0EEF6E2F50EA6E2C
:1000E0002E50E96E0A0EEF6E12002BAE09D02D5085
:1000F000EA6E2C50E96E0A0EEF6E2B1E2B2A39D0B9
:100100000A0E2B6001D02FD02BBE2DD0336A2B507E
:10011000316E2BAE03D0311E312A332A0A0E326ED5
:1001200038EC00F03750306E33A002D0301E302A49
:100130002D50EA6E2C50E96E3050EF6E3050336E19
:10014000346A333634363336343633363436F80E92
:1001500033163050316E326AD890313632363150E3
:1001600033242B5E06D02D50EA6E2C50E96E0B0E18
:10017000EF6E2F50EA6E2E50E96E2B50EF6E12008C
:10018000275204E0020E276207D003D014502A6ED3
:1001900005D016502A6E02D015502A6E2A502B6EAA
:1001A000000E2D6E280E2C6E000E2F6E290E2E6E58
:1001B0005DEC00F028502B6E29502C6E4DEC00F0B9
:1001C0001200216A226A256A266A236A100E231405
:1001D000246E24661200D890253626361C361D362D
:1001E000213622361E50215C1F502262225C05E31C
:1001F0001E50215E1F50225A2580232AE7D7C28233
:10020000C2B2FED71A6AC4501B6EC3501A12F40E43
:100210001A5E010E1B5A206A1A501C6E1B501D6E6E
:100220001BAE06D01C1E1D1E1C2AD8B41D2A202A57
:100230000A0E1E6E1F6AE1EC00F025501A6E265061
:100240001B6E20A005D01A1E1B1E1A2AD8B41B2A0A
:100250001A501C6E120017B003D0010E186E1780D2
:10026000185204E1818A010E1A6E02D081881A6A3E
:1002700000EE11F0E9501A50E926EF50826E1A5242
:1002800002E1819A01D081981A50186E1200FFEC99
:1002900000F01C50156E1650D89016BE155C16AEA8
:1002A000156001D002D015AE05D001E303D0155082
:1002B000166E12001550D89015BE145C15AE146061
:1002C00001D002D014AE1200D8B012001550146E36
:1002D000120019520AE0D59EF29A8268818A8188BA
:1002E0001050116E1050126E1200D66AF294F29AEB
:1002F000D58E12007E829282880EC06E080EC16E6C
:10030000040EC26E200EB16E396A14EC00F01200B9
:100310000F0E7E167F6A818A8188939A9398946AD9
:10032000420ED56E196A69EC01F0120080B0FED75A
:10033000320E196E06EC00F080A01200010E196E4C
:1003400006EC00F0F9D77E989298929A939E809A44
:100350008088819E7E90928088EC01F07AEC01F09A
:10036000F28CF28E80A0FED7132A030E136401D004
:10037000136A13520AE013040CE0020E136201D058
:100380000CD0030E13622BD00CD0808A8098819EF3
:1003900026D0809A8088819E22D0809A8098818EF3
:1003A0001ED0809A8098819E010E196E69EC01F032
:1003B000010E396E14EC00F096EC01F0F292F28826
:1003C000010E386E27EC00F0F298396A14EC00F058
:1003D000196A69EC01F0276AC0EC00F0C3D7A0925B
:1003E0001350276EC0EC00F0A08296EC01F0BAD753
:1003F000010E136E800E146E156A7F0E166E179026
:10040000400E056EEB0E066E120E076E0A0E086E9B
:10041000290E096E0C0E0A6E040E0B6E680E0C6E21
:100420000D6A080E0E6EBF0E0F6E1068116812680E
:10043000A3EF01F0EACF01F0E9CF02F0F4CF03F02F
:10044000F3CF04F0F2AA05D0F2A403D02BEC01F014
:10045000F294A0A209D0A1A207D047EC01F013505A
:10046000276EC0EC00F0A1929DA013D09EA011D0E9
:10047000386A27EC00F0396A14EC00F047EC01F020
:100480009E90010E396E14EC00F0010E386E27ECD0
:1004900000F0F2A806D0F2A204D0386A27EC00F0EF
:1004A000F29204C0F3FF03C0F4FF02C0E9FF01C0F1
:0404B000EAFF11004E
:020000040030CA
:0E000000FF08EDFEFF77B2FFFFFFFFFFFFFFDF
:00000001FF
